:020000040000FA
:10000000680920206D0100007101000073010000EB
:1000100000000000000000000000000000000000E0
:10002000000000000000000000000000750100005A
:1000300000000000000000007701000079010000CE
:100040007B0100007B0100007B0100007B010000C0
:10005000050200007B0100007B0100007B01000025
:10006000000000007B0100007B0100000000000098
:10007000000000007B0100007B0100007B0100000C
:100080007B0100007B0100007B0100007B01000080
:100090007B0100007B010000000000000000000068
:1000A0007B0100007B010000000000000000000058
:1000B0007B010000000000007B0100007B010000CC
:1000C00000F002F800F042F812A030C808382418F6
:1000D0002D18AC4201D100F039F80FCCA246AB4646
:1000E0000CA730CF2D1B083F3F197C427F1E544484
:1000F0002D090426F441641EAC4201D300F026F819
:100100000126334200D0FB1A3343984754465D46DC
:10011000DFE700006403000074030000000000003B
:100120007047000000000000002300240025002686
:10013000103A01D378C1FBD8520700D330C100D5A3
:100140000B6070471FB51FBD10B510BD00F027F83C
:100150001146FFF7F7FF00F041F900F03FF803B454
:10016000FFF7F2FF03BC00F045F800000648004727
:10017000FEE7FEE7FEE7FEE7FEE7FEE70348044989
:10018000024A044B70470000C100000068082020AC
:10019000680920206808202070477047704775461E
:1001A00000F024F8AE46050069465346C008C0007A
:1001B000854618B020B5FFF7E1FF60BCB6460026C3
:1001C0000027C0C5C0C5C0C5C0C5C0C5C0C5C0C565
:1001D000C0C5403D490849008D46704710B50446EA
:1001E000C046C0462046FFF7BAFF10BD0048704722
:1001F0000000202001491820ABBEFEE726000200C7
:100200007047000004480068C0B2062802D18F4839
:10021000012101707047C04620100040B0B50A7837
:10022000032313400B4A84580B4D2540EB18A92497
:1002300024061B198350072212064B681340112411
:10024000240205599543EA180251001949780161C1
:10025000B0BDC04608080000FCFFFF00811E091F5A
:1002600000BFFCD27047000070B50B01C318546882
:100270009568254394892C43156956692543D4898B
:1002800024012C4335012543092464021D511378B0
:1002900052781A43BF231A40890040180249445833
:1002A0009C43A218425070BD10110000B0B501244B
:1002B000A0071C49FFF7B2FF1B48011F0A681B4B30
:1002C000134062049A180A600168194A0A400260E1
:1002D000184902220A60A10203680B430360230449
:1002E000014608390D681D430D60C2602202036893
:1002F000134303601F22D2020368934303221203B5
:100300009A180260A0040C4A136E03431366106A25
:1003100020231843106210681843106008682043B7
:100320000860B0BD5404000008110040FEFFECFF5F
:10033000F8FFE0E0801100402810004080B503483D
:100340000021034AFFF790FF80BDC04600A0424055
:100350005C04000080B5FFF7F1FF80BD704700002E
:100360000948002101600948014608390A68032349
:100370009A430A60016801229143016011020268F8
:100380008A4302607047C04608030B4008010B40D7
:1003900080B500F009F8FFF7E1FFFFF7E1FFFFF795
:1003A00085FFFFF7D7FF80BD80B50748074941604B
:1003B000074A5160074B5960074901601160196095
:1003C0001020FFF74BFF80BD00080A40030000B17A
:1003D00000280A400008004001000026FFF7D8FF6F
:1003E0001648174941601749816001214A02C260DD
:1003F000026802231343036013481022026013486B
:10040000002202700902124A13680B43136001783C
:1004100000290DD120BF0178002909D120BF017822
:10042000002905D120BF0178002901D120BFEEE7C6
:1004300000BE30BF30BF30BF30BFFAE700B242402D
:10044000606155406000202000E100E0600820204D
:10045000041100400105000000000000170000002A
:100460000000000000000000000200020000000088
:1004700000000300000000008804000000002020AD
:080480006809000028010000DA
:04000005000000C136
:00000001FF
